:100000000C9456000C9460000C9460000C946000FA
:100010000C9460000C9460000C9460000C946000E0
:100020000C9460000C9460000C9460000C946000D0
:100030000C9460000C9460000C9460000C946000C0
:100040000C9460000C9460000C9460000C946000B0
:100050000C946B000C9460000C9460000C94600095
:100060000C9460000C9460000C9460000C94600090
:100070000C9460000C9460000C9460000C94600080
:100080000C9460000C9460000C9460000C94600070
:100090000C9460000C9460000C9460000C94600060
:1000A0000C9460000C9460000C94600011241FBE3E
:1000B000CFEFDAE0DEBFCDBF0E9499000C94C10003
:1000C0000C940000CF93DF93CDB7DEB780E090E0D3
:1000D000DF91CF9108951F920F920FB60F921124C6
:1000E0002F933F938F939F93EF93FF93CF93DF9340
:1000F000CDB7DEB788E290E0FC01308188E290E085
:1001000020E82327FC01208384E890E02BE731EEF0
:10011000FC01318320830000DF91CF91FF91EF91AB
:100120009F918F913F912F910F900FBE0F901F9035
:100130001895CF93DF9300D000D0CDB7DEB79A8368
:1001400089837C836B8387E290E0FC01208187E2D6
:1001500090E02068FC01208384E890E0FC0111829B
:10016000108281E890E025E0FC01208380E890E0A7
:10017000FC0110828FE690E021E0FC01208378945E
:06018000FFCFF894FFCF51
:00000001FF
